:020000040800F2
:10000000302100209D010008331300081F12000852
:1000100031130008A9020008A5150008000000001F
:10002000000000000000000000000000D9140008DB
:10003000690300080000000035130008DB14000805
:10004000B7010008B7010008B7010008B7010008B0
:10005000B7010008B7010008B7010008B7010008A0
:10006000B7010008B7010008B7010008B701000890
:10007000B7010008B7010008AD020008B902000886
:10008000B7010008B7010008B7010008B701000870
:10009000B7010008B7010008B7010008B701000860
:1000A000B7010008B7010008B7010008B701000850
:1000B000B7010008B7010008B7010008B701000840
:1000C000B7010008B7010008B7010008B701000830
:1000D000B7010008B7010008B7010008B701000820
:1000E000B7010008B7010008B7010008B701000810
:1000F000B7010008B7010008B7010008B701000800
:10010000B7010008B7010008B7010008B7010008EF
:10011000B7010008B7010008B7010008B7010008DF
:10012000B7010008B7010008B7010008B7010008CF
:10013000B70100080000000000000000B70100083F
:10014000B7010008B7010008B7010008B7010008AF
:10015000B7010008B7010008B7010008B70100089F
:10016000B7010008B7010008B7010008B70100088F
:10017000B7010008B70100080000000000000000FF
:10018000B7010008B7010008DFF80CD000F07AF8DA
:1001900000480047E5150008302100200648804748
:1001A00006480047FEE7FEE7FEE7FEE7FEE7FEE75C
:1001B000FEE7FEE7FEE7FEE7951500088901000867
:1001C0002DE9F05F0546002092469B46884606468C
:1001D000814640241BE0284641464746224600F01F
:1001E00041F853465A46C01A914110D31146184659
:1001F000224600F028F82D1A67EB01084F462246E8
:100200000120002100F01FF817EB00094E41201ECD
:10021000A4F10104DFDC484631462A464346BDE8E6
:10022000F09FD2B201E000F8012B491EFBD27047CB
:100230000022F6E710B513460A4604461946FFF7B2
:10024000F0FF204610BD202A04DB203A00FA02F11C
:10025000002070479140C2F1200320FA03F31943B4
:1002600090407047202A04DB203A21FA02F0002156
:10027000704721FA02F3D040C2F1200291400843B6
:1002800019467047064C074D06E0E06840F0010350
:1002900094E8070098471034AC42F6D3FFF778FF94
:1002A00080160008A0160008FEE70000014800F0D4
:1002B00083B8000070000020014800F07DB8000005
:1002C000D000002001681823CAB2103AB2FBF3F242
:1002D000054B6FF30901032A9B5CC36500D9091D17
:1002E00081650846704700006816000810B5014691
:1002F00000208B698A6A4FF0C07453B1B3F5005F78
:1003000015D072B1012A0CD0022A0AD0032A09D1D1
:1003100004E01AB1012A06D0022A03D1C96AC90130
:1003200000D5012010BDC96AA142FAD010BD002A33
:10033000F7D0012AF2D0022AF3D0032AF3D010BD5D
:1003400030B50468256825F480252560046863605D
:100350008368402B036803D099600068C26030BD99
:100360009A600068C16030BD704772B6FEE710B594
:10037000040002D0607910B106E0012010BD002019
:100380002071204600F004F801206071002010BDAB
:1003900008B500680649884208D10648016841F45A
:1003A00080510160006800F48050009008BD00009A
:1003B00000300240303802402DE9F84304464FF047
:1003C0000009CDF8009063484FF41651A56D006800
:1003D000B0FBF1F72E6894F85C10082000FA01F1E8
:1003E00031420FD021680A6852070BD50A6822F003
:1003F00004020A6094F85C108840A860606D40F0C8
:100400000100606594F85C104FF0010808FA01F0F3
:10041000304208D021684969090604D5A860606D9A
:1004200040F00200606594F85C100420884030427F
:1004300008D021680968890704D5A860606D40F07C
:100440000400606594F85C1010208840304218D099
:1004500021680968090714D5A86020680168490364
:1004600004D50068000308D5A16C07E00168C90540
:1004700003D4016821F008010160216C09B1204614
:10048000884794F85C1020208840304231D02168A1
:100490000968C9062DD5A86094F83500052820689C
:1004A000016806D0490347D5006800031DD4616C7C
:1004B0001CE021F0160101602068416921F08001F3
:1004C0004161206C08B9A06C20B12068016821F05E
:1004D0000801016094F85C103F208840A86084F80F
:1004E000358084F83490216D1FE0E16B09B120461E
:1004F0008847606D00282BD0606DC00714D00520A0
:1005000084F835002068016821F00101016000983D
:10051000401C0090B84203D820680068C007F6D19C
:1005200084F8358084F83490E16C002910D001B053
:100530002046BDE8F04308470168C905D5D40168E5
:1005400021F01001016084F8358084F83490CCE704
:10055000BDE8F883140000202DE9F041044600F0C6
:10056000A3F906465CB1022084F83500002584F822
:1005700034502068016821F0010101600DE0012084
:10058000BDE8F08100F090F9801B052805D92020F6
:100590006065032084F83500F2E720680068C00732
:1005A000F0D12268116820480140D4E901031843C2
:1005B000D4E903363343184363691843A3691843E6
:1005C000E3691843236A18430843616A042903D185
:1005D000D4E90B1319430843106020684069666A28
:1005E00020F0070130460E43012704280CD1A06AF1
:1005F0000643E06A40B12046FFF778FE20B1402074
:10060000606584F83570BAE7206846612046FFF7D8
:1006100059FE94F85C203F2191408160656584F823
:1006200035700020ACE700003F8010F02DE9F0416C
:100630000446866D90F83400002501280DD0012075
:1006400084F8340094F835700020012F07D084F826
:10065000340002252846BDE8F0810220FBE702278E
:1006600084F8357060652046FFF76AFE94F85C10E8
:100670003F208840B0602068016841F016010160A9
:10068000206C20B12068016841F0080101602068F9
:10069000016841F001010160DCE700002DE9F84F3D
:1006A000DFF8BCA1002201250AF1040B03264FF05C
:1006B0000F090BF1040E00BF0B6805FA02F423408A
:1006C000A34270D10F7907F00307012F01D0022F49
:1006D00016D187684FEA420806FA08FC27EA0C0799
:1006E000D1F80CC00CFA08FC4CEA070CC0F808C0A2
:1006F0004768A7430C79C4F3001494403C4344601A
:100700000C79E443A4070AD0C4684FEA420C06FA05
:100710000CF7BC438F6807FA0CF72743C7600C79C6
:1007200004F00304022C12D1D40800EB840CDCF892
:1007300020405707FF0E09FA07F824EA0804D1F809
:10074000108008FA07F848EA0408CCF8208004680A
:100750004FEA420C06FA0CF7BC430F7907F0030787
:1007600007FA0CF7274307604C6814F4403F70D039
:100770003C4C276847F480472760246822F0030731
:1007800004F480440094384C07EB040CDCF808486F
:1007900097074FEA177809FA08F7BC43334FB84276
:1007A00002D1002724E054E0314FB84201D10127A3
:1007B0001EE0304FB84201D1022719E02E4FB84257
:1007C00001D1032714E02D4FB84201D104270FE0D7
:1007D0002B4FB84201D105270AE02A4FB84201D178
:1007E000062705E0284FB84201D1072700E0082777
:1007F00007FA08F72743CCF80878DAF8004057469C
:10080000D1F804C09C435FEACC3C00D51C433C605B
:10081000DBF800405F46D1F804C09C435FEA8C3CA3
:1008200000D51C433C60DEF800407746D1F804C098
:100830009C435FEACC2C00D51C433C60084F0C372E
:100840003C68D1F804C09C435FEA8C2C00D51C4363
:100850003C60521C102AFFF42FAFBDE8F88F000057
:10086000003C01404438024000300140000002409A
:100870000004024000080240000C02400010024048
:100880000014024000180240001C0240426921EAA4
:1008900002030A4043EA0241816170470AB1816163
:1008A00070470904FBE700000148806870470000BA
:1008B0000800002002488168027811448160704776
:1008C000080000200B4810B5016841F40071016078
:1008D000016841F480610160016841F48071016048
:1008E000032000F06FF8002000F006F800F024F874
:1008F000002010BD003C024070B50D4D04464FF481
:100900007A712878B1FBF0F00A490968B1FBF0F080
:1009100000F071FC48B9102C07D200222146501E6D
:1009200000F030F800206C6070BD012070BD000048
:1009300008000020140000200A4808B5016841F4AE
:1009400080410160006800F4804000900548001F6D
:10095000016841F080510160006800F08050009013
:1009600008BD000044380240002809DB00F01F02E7
:10097000012191404009800000F1E020C0F8001101
:1009800070470000F0B40E4B1B680C46C3F3022303
:10099000C3F10705042D00D90425191D072901D22B
:1009A000002300E0DB1E012606FA05F1491E214066
:1009B00099409E40761E16403143F0BC00F0F3BDD6
:1009C0000CED00E0064900F0070208684FF6FF034F
:1009D000184040EA0220034A1043086070470000B4
:1009E0000CED00E00000FA052DE9F0470E46050089
:1009F00065D0DFF81481D8F80000F7B200F00700E6
:100A0000B04207D288F80070D8F8000000F0070064
:100A1000B04254D128683D4C810712D5400703D518
:100A2000206840F4E05020602878000703D5206853
:100A300040F4604020602068A96820F0F00008437E
:100A400020602878C0072DD030496868083901280F
:100A500012D0022813D0032811D009688907002971
:100A60002DDA216821F0030101432160FFF71CFF0B
:100A7000814641F2883A0EE009688903EFE7096888
:100A80008901ECE7FFF710FFA0EB0901514502D9FE
:100A90000320BDE8F0872068696800F00C00B0EB27
:100AA000810FEFD1D8F80010404601F00701B142A4
:100AB00007D90770006800F00700B04201D001209C
:100AC000E7E72878400705D52068E96820F4E0507A
:100AD000084320602878000706D52068296920F49B
:100AE000604040EAC100206000F018F82168084A20
:100AF000C1F30311515CC84006490860064800680C
:100B0000FFF7FAFE0020C4E7003C0240083802402C
:100B100070160008140000200C000020154810B5C5
:100B2000006810F00C02144813D01449042A0FD0A6
:100B3000082A0ED10F4C241F2268236802F03F02BE
:100B40005B0207D52068C0F38810A0FB010106E016
:100B5000084610BD2168C1F38811A1FB00010023E4
:100B6000FFF72EFB2168C1F30141491C4900B0FB8E
:100B7000F1F010BD083802400024F400001BB7005B
:100B8000F0B51F4C16460D461D4B002102220327CF
:100B9000283C0028186887B019D040F0040018607D
:100BA000186800F00400059010020090CDE90121C2
:100BB000CDE9037169461348FFF770FD206845EAE7
:100BC000C60120F078400843206007B0F0BD40F037
:100BD00001001860186800F0010005904FF4807063
:100BE0000090CDE90121CDE9037169460648FFF780
:100BF00055FD2068354320F0EC602843E4E7000011
:100C00003038024000080240000002402DE9F84F51
:100C100004006ED02078DFF84C93C007A9F10405DA
:100C20004AD009F104000168C1F38101012908D00B
:100C30000068C0F3810002280AD1D9F80000400200
:100C400006D52868800337D560680028E1D033E0F6
:100C50006068B0F5803F10D0B0F5A02F286810D0A4
:100C600020F480302860286820F4802028606068A4
:100C7000A8B1FFF719FE06460DE0286840F4803061
:100C8000F4E740F480202860F7E700BFFFF70CFE90
:100C9000801B642873D828688003F7D50CE0FFF721
:100CA00003FE064605E000BFFFF7FEFD801B64283B
:100CB000F0D828688003F7D42078DFF8AC8280076A
:100CC0004FF0000A3ED5A748001D016811F00C0F37
:100CD00008D00068C0F3810002280BD1D9F80000C9
:100CE000400207D42868800716D5E068012800D1A3
:100CF00012E033E1E068B8B10120C8F80000FFF766
:100D0000D3FD064605E000BFFFF7CEFD801B02289D
:100D1000C0D828688007F7D52868216920F0F80036
:100D200040EAC10028600DE0C8F800A0FFF7BCFD54
:100D3000064604E0FFF7B8FD801B02281FD828688C
:100D40008007F7D42078000722D5864F874861694D
:100D5000703771B101210160FFF7A6FD064604E07E
:100D6000FFF7A2FD801B022809D838688007F7D555
:100D70000EE0C0F800A0FFF797FD064605E082E010
:100D8000FFF792FD801B02287DD838688007F7D4D2
:100D90002078400768D5DFF8CCB100270BF13C0B79
:100DA000DBF80000C0000BD4DBF8001041F08051EC
:100DB000CBF80010DBF80000012700F08050009015
:100DC0006B4E3068C00510D4306840F480703060DD
:100DD000FFF76AFD009005E0FFF766FD0099401AF5
:100DE000022850D83068C005F6D55E4EA0686C3633
:100DF00001280FD00528306810D020F001003060A5
:100E0000306820F004003060A068B8B1FFF74CFDF6
:100E100000900FE0306840F00100F4E740F004007B
:100E20003060F7E7FFF740FD0099411A41F2883042
:100E3000814266D830688007F4D50EE0FFF734FDB4
:100E4000009007E0FFF730FD0099411A41F2883029
:100E5000814256D830688007F4D42FB1DBF80010F7
:100E600021F08051CBF80010A069C8B33D49091D9D
:100E70000968C1F3810102294AD00228504607D0EF
:100E8000C8F8600000E03CE0FFF70EFD04463BE0E0
:100E90004746C8F86000FFF707FD064605E000BFBB
:100EA000FFF702FD801B02282BD828688001F7D4A9
:100EB000D4E907010843A16A2E4A490802EB01411F
:100EC000626A41EA8211084394F82C1040EA0161F9
:100ED000C9F8001001203866FFF7E6FC044606E07A
:100EE0003EE000BFFFF7E0FC001B022809D828689D
:100EF0008001F7D534E000BFFFF7D6FC001B0228C5
:100F000002D90320BDE8F88F28688001F4D427E0D7
:100F10000128F7D0D9F80000E26900F4800191427D
:100F20001CD1226A00F03F01914217D147F6C071EF
:100F3000626A0140B1EB821F10D1A26A4FF0FF3309
:100F400000F4403103EB5202B1EB024F06D194F8AA
:100F50002C1000F07060B0EB016F01D00120D1E7E0
:100F60000020CFE70438024000004742800E47428D
:100F7000007000400000FFFF704770B5040009D00A
:100F8000606A002540B125616561A56294F8510051
:100F900040B10CE0012070BD6068B0F5827FF4D0F4
:100FA000E561F2E784F85050204600F045F8022051
:100FB00084F851002068016821F040010160A08898
:100FC000218900F4827001F404410843A18901F4ED
:100FD00000610843217C01F002010843217D01F0FA
:100FE00001010843218B01F400710843217F01F0C6
:100FF0003801084394F8201001F080010843218D46
:1010000001F40051084321680860A069042101EA45
:10101000104094F8241001F0100108432168486042
:101020002068C16921F40061C1616565012084F80F
:101030005100002070BD00002DE9F04186B0064649
:1010400014216846FFF7F4F82A49306888424DD1E8
:1010500029480024016841F480410160006800F4DF
:101060008040059024481038016841F00201016079
:101070000068694600F0020005904FF4704000904F
:101080000220CDE9010403200390052004901B48B1
:10109000FFF704FB1B4D1A484FF44038C5E9000424
:1010A0000715AC60C5E903476C61AC61C5E9074849
:1010B00028466C62FFF750FA08B1FFF756F9F5645D
:1010C000AE630F48104D1830E5E80204402091C58A
:1010D0000D4845F81449AC61C5E907486C62FFF753
:1010E0003BFA08B1FFF741F9B564AE6306B0BDE85D
:1010F000F081000000380040403802400004024007
:101100005860024070000020D00000202DE9F0411E
:10111000044690F850000026012809D0012784F8E1
:10112000507094F851000025012804D002264EE0AA
:101130000220BDE8F08189B182B1032084F851001A
:1011400065652163A286E286A56365642564A5873B
:10115000E587A068B0F5004F02D00BE0012636E02D
:101160002068016821F0400101602068016841F4B5
:1011700080410160A16C18480864A16C1748C863DD
:10118000A16C1748C864A06C0565E38E2268216BCA
:101190000C32A06CFFF74AFA38B1606D40F01000D5
:1011A0006065012684F8517011E0206801684906E5
:1011B00003D4016841F0400101602068416841F0BA
:1011C000200141602068416841F00201416084F8DB
:1011D00050503046ADE70000591300086313000873
:1011E000371300084FF400410148FFF74FBB0000E0
:1011F00000000240704710B5401EB0F1807F01D35F
:10120000012010BD4FF0E02460610F21601700F055
:10121000CAF90020A06107202061002010BDFEE770
:101220002DE9F04186B014216846FFF701F82D48FA
:101230000024016841F080010160016801F0800133
:101240000591016841F002010160016801F00201AD
:101250000591016841F004010160016801F0040199
:101260000591016841F00101016000681E4F00F026
:1012700001004FF400460590002231463846FFF742
:101280000DFBDFF86880002210214046FFF706FBC7
:10129000B01100900225CDE9015403946946144829
:1012A0000494FFF7FBF9E8010090CDE901540394A1
:1012B000694638460494FFF7F1F901250096CDE917
:1012C0000154694638460394FFF7E8F9102000906E
:1012D000CDE90154694640460394FFF7DFF906B0B3
:1012E000BDE8F081303802400000024000040240B6
:1012F000000802400D4810B50B4901600021416013
:1013000002228160C0E903120122C0E905210162C5
:10131000416281620A21C162FFF72FFE002801D0DD
:1013200072B6FEE710BD0000003800401800002033
:10133000FEE7FEE7704710B5806B01684A6822F04F
:1013400003024A60416D41F010014165012180F8BE
:101350005110FFF711FE10BD10B5806BFFF74AFF6B
:1013600010BD38B50546846BFFF79EFA0246286823
:101370000068C00523D42068416821F02001416045
:101380002068416821F0020141606421204600F09C
:101390001BF818B1606D40F020006065A068002166
:1013A00018B92068C26880680090E186012084F83E
:1013B0005100606D18B12046FFF7DEFD38BD2046B4
:1013C000FFF710FF38BD000038B504461248134B34
:1013D0000068B0FBF3F04FF47A73584300906068F4
:1013E000B0F5827F0DD10B4600920022802120466D
:1013F00000F016F870B1606D40F0200060650320C9
:1014000038BD009830B1401E009020688068C0430D
:101410000006F6D5002038BD1400002000366E010D
:101420002DE9F8431E46914688460446089DFFF77D
:101430003BFA401B351AFFF737FA07462548006884
:10144000C0F3CB30684338E0701C37D0FFF72CFA7C
:10145000C01BA84203D215B1009860B32CE02068ED
:10146000416821F0E00141606068B0F5827F0BD1F6
:10147000A068B0F5004F02D0B0F5806F04D12068AD
:10148000016821F040010160A06AB0F5005F09D158
:101490002068016821F4005101602068016841F46E
:1014A00000510160012084F85100002084F85000B0
:1014B0000320BDE8F8830025401E00902068816865
:1014C00038EA010004D000214945BDD10020F0E7F1
:1014D0000121F9E7140000207047FFF7EBB9000085
:1014E00030B593B030216846FEF7A2FE14210CA857
:1014F000FEF79EFE25480025016841F080510160FD
:10150000006800F0805011902148016841F480414A
:1015100001600068022400F48040119003200090D4
:101520004FF480300190012003901020049080043B
:10153000CDE906400C2008904FF4A870CDE90904CD
:1015400004200B906846FFF761FB08B172B6FEE716
:101550000CA90F2081E831004FF4A0500F904FF4F8
:101560008050109005210CA8FFF73EFA08B172B622
:10157000FEE7002211461046FFF702FB002211464B
:101580000120FFF7FDFA13B030BD000040380240E3
:10159000007000400248016841F47001016070472A
:1015A00088ED00E0FEE70907090E002804DB00F1E2
:1015B000E02080F80014704700F00F0000F1E020F8
:1015C00080F8141D704702E008C8121F08C1002AE5
:1015D000FAD170477047002001E001C1121F002AB4
:1015E000FBD17047ADF5816DFFF76CF9FFF778FF20
:1015F000FFF716FE1848016841F400110160006809
:1016000000F40010CDF80004FFF774FE14491348ED
:1016100008600846FEF7ABFE08B172B6FEE700228E
:1016200011460E20FFF7AEF90E20FFF79DF90022BC
:1016300011460F20FFF7A6F90F20FFF795F90020BC
:101640006A46411C1154C8B2FF28FAD3FF226946EA
:101650000448FFF75BFDFEE73038024000300240EF
:1016600000000020180000200006101600061016CA
:101670000000000000000000010203040607080942
:10168000A01600080000002018000000C615000881
:10169000B81600081800002018210000D615000810
:1016A0000000000000000000010000001000000029
:0816B000000000000024F4001A
:040000050800018965
:00000001FF
