:020000040800F2
:10000000202E00209D0100080B180008D5160008BE
:1000100009180008FD020008C11C000800000000CB
:10002000000000000000000000000000E51A0008C9
:10003000BD030008000000000D180008F91B0008AF
:10004000B7010008B7010008B7010008B7010008B0
:10005000B7010008B7010008B7010008B7010008A0
:10006000B7010008B7010008B7010008B701000890
:10007000B7010008B7010008010300080D030008DC
:10008000B7010008B7010008B7010008B701000870
:10009000B7010008B7010008B7010008B701000860
:1000A000B7010008B7010008B7010008B701000850
:1000B000B7010008B7010008B7010008B701000840
:1000C000B7010008B7010008B7010008B701000830
:1000D000B7010008B7010008B7010008B701000820
:1000E000B7010008B7010008B7010008B701000810
:1000F000B7010008B7010008B7010008B701000800
:10010000B7010008B7010008B7010008B7010008EF
:10011000B7010008B7010008B7010008B7010008DF
:10012000B7010008B7010008B7010008B7010008CF
:10013000B70100080000000000000000B70100083F
:10014000B7010008B7010008B7010008B7010008AF
:10015000B7010008B7010008B7010008B70100089F
:10016000B7010008B7010008B7010008B70100088F
:10017000B7010008B70100080000000000000000FF
:10018000C9160008B7010008DFF80CD000F08CF8A1
:1001900000480047011D0008202E00200648804727
:1001A00006480047FEE7FEE7FEE7FEE7FEE7FEE75C
:1001B000FEE7FEE7FEE7FEE7B11C00088901000844
:1001C0002DE9F05F0546002092469B46884606468C
:1001D000814640241BE0284641464746224600F01F
:1001E00053F853465A46C01A914110D31146184647
:1001F000224600F03AF82D1A67EB01084F462246D6
:100200000120002100F031F817EB00094E41201EBB
:10021000A4F10104DFDC484631462A464346BDE8E6
:10022000F09F40EA01039B0703D009E008C9121FB1
:1002300008C0042AFAD203E011F8013B00F8013BA0
:10024000521EF9D27047D2B201E000F8012B491ECC
:10025000FBD270470022F6E710B513460A46044663
:100260001946FFF7F0FF204610BD202A04DB203A94
:1002700000FA02F1002070479140C2F1200320FAF9
:1002800003F3194390407047202A04DB203A21FAF7
:1002900002F00021704721FA02F3D040C2F120029F
:1002A0009140084319467047064C074D06E0E06848
:1002B00040F0010394E8070098471034AC42F6D3AD
:1002C000FFF766FFEC1D00080C1E00084FF4896262
:1002D000014901F045B800006404002010B54FF456
:1002E0008051054800F06CFB002804D1BDE81040A7
:1002F000012000F05BBA10BD00040240FEE70000E0
:10030000014800F0E1B800005C0D0020014800F059
:10031000DBB80000BC0D002001681823CAB2103AF7
:10032000B2FBF3F2054B6FF30901032A9B5CC36533
:1003300000D9091D8165084670470000D41D0008DA
:1003400010B5014600208B698A6A4FF0C07453B122
:10035000B3F5005F15D072B1012A0CD0022A0AD081
:10036000032A09D104E01AB1012A06D0022A03D1D6
:10037000C96AC90100D5012010BDC96AA142FAD0DD
:1003800010BD002AF7D0012AF2D0022AF3D0032AA6
:10039000F3D010BD30B50468256825F480252560AC
:1003A000046863608368402B036803D09960006829
:1003B000C26030BD9A600068C16030BD704772B6DF
:1003C000FEE7000030B502234371002305E000BFC3
:1003D000056851F823402C605B1C9342F8D30168F8
:1003E000096801224271084630BD10B5040002D0F0
:1003F000607910B106E0012010BD00202071204678
:1004000000F004F801206071002010BD08B50068FC
:100410000649884208D10648016841F480510160CC
:10042000006800F48050009008BD000000300240D9
:10043000303802402DE9F0410446876D00F0D2FAD1
:10044000064694F835000025022806D08020606515
:1004500084F834500120BDE8F0812068016821F063
:10046000160101602068416921F080014161206C22
:1004700008B9A06C20B12068016821F00801016072
:100480002068016821F0010101600CE000F0AAFA87
:10049000801B052807D920206065032084F83500DB
:1004A00084F83450D7E720680068C007EED194F88C
:1004B0005C103F208840B860012084F8350084F843
:1004C00034500020C7E700002DE9F84304464FF000
:1004D0000009CDF8009063484FF41651A56D0068EF
:1004E000B0FBF1F72E6894F85C10082000FA01F1D7
:1004F00031420FD021680A6852070BD50A6822F0F2
:1005000004020A6094F85C108840A860606D40F0B6
:100510000100606594F85C104FF0010808FA01F0E2
:10052000304208D021684969090604D5A860606D89
:1005300040F00200606594F85C100420884030426E
:1005400008D021680968890704D5A860606D40F06B
:100550000400606594F85C1010208840304218D088
:1005600021680968090714D5A86020680168490353
:1005700004D50068000308D5A16C07E00168C9052F
:1005800003D4016821F008010160216C09B1204603
:10059000884794F85C1020208840304231D0216890
:1005A0000968C9062DD5A86094F83500052820688B
:1005B000016806D0490347D5006800031DD4616C6B
:1005C0001CE021F0160101602068416921F08001E2
:1005D0004161206C08B9A06C20B12068016821F04D
:1005E0000801016094F85C103F208840A86084F8FE
:1005F000358084F83490216D1FE0E16B09B120460D
:100600008847606D00282BD0606DC00714D005208E
:1006100084F835002068016821F00101016000982C
:10062000401C0090B84203D820680068C007F6D18B
:1006300084F8358084F83490E16C002910D001B042
:100640002046BDE8F04308470168C905D5D40168D4
:1006500021F01001016084F8358084F83490CCE7F3
:10066000BDE8F883180000202DE9F041044600F0B1
:10067000B9F906465CB1022084F83500002584F8FB
:1006800034502068016821F0010101600DE0012073
:10069000BDE8F08100F0A6F9801B052805D92020CF
:1006A0006065032084F83500F2E720680068C00721
:1006B000F0D12268116820480140D4E901031843B1
:1006C000D4E903363343184363691843A3691843D5
:1006D000E3691843236A18430843616A042903D174
:1006E000D4E90B1319430843106020684069666A17
:1006F00020F0070130460E43012704280CD1A06AE0
:100700000643E06A40B12046FFF71AFE20B14020C0
:10071000606584F83570BAE7206846612046FFF7C7
:10072000FBFD94F85C203F2191408160656584F871
:1007300035700020ACE700003F8010F02DE9F0415B
:100740000446866D90F83400002501280DD0012064
:1007500084F8340094F835700020012F07D084F815
:10076000340002252846BDE8F0810220FBE702277D
:1007700084F8357060652046FFF70CFE94F85C1035
:100780003F208840B0602068016841F01601016098
:10079000206C20B12068016841F0080101602068E8
:1007A000016841F001010160DCE7000070B504461A
:1007B00000F018F90546601C02D004480078044493
:1007C00000F010F9401BA042FAD370BD0C000020CD
:1007D0002DE9F84FDFF8BCA1002201250AF1040B36
:1007E00003264FF00F090BF1040E00BF0B6805FA4A
:1007F00002F42340A34270D10F7907F00307012FC1
:1008000001D0022F16D187684FEA420806FA08FC89
:1008100027EA0C07D1F80CC00CFA08FC4CEA070CCC
:10082000C0F808C04768A7430C79C4F3001494408B
:100830003C4344600C79E443A4070AD0C4684FEAFF
:10084000420C06FA0CF7BC438F6807FA0CF72743F3
:10085000C7600C7904F00304022C12D1D40800EB19
:10086000840CDCF820405707FF0E09FA07F824EA49
:100870000804D1F8108008FA07F848EA0408CCF810
:10088000208004684FEA420C06FA0CF7BC430F794B
:1008900007F0030707FA0CF7274307604C6814F4C6
:1008A000403F70D03C4C276847F48047276024685D
:1008B00022F0030704F480440094384C07EB040C46
:1008C000DCF8084897074FEA177809FA08F7BC439D
:1008D000334FB84202D1002724E054E0314FB842F0
:1008E00001D101271EE0304FB84201D1022719E0A3
:1008F0002E4FB84201D1032714E02D4FB84201D149
:1009000004270FE02B4FB84201D105270AE02A4FF8
:10091000B84201D1062705E0284FB84201D1072788
:1009200000E0082707FA08F72743CCF80878DAF838
:1009300000405746D1F804C09C435FEACC3C00D548
:100940001C433C60DBF800405F46D1F804C09C4388
:100950005FEA8C3C00D51C433C60DEF800407746E3
:10096000D1F804C09C435FEACC2C00D51C433C600A
:10097000084F0C373C68D1F804C09C435FEA8C2CCC
:1009800000D51C433C60521C102AFFF42FAFBDE879
:10099000F88F0000003C0140443802400030014024
:1009A000000002400004024000080240000C024027
:1009B000001002400014024000180240001C0240D7
:1009C0000069084000D001207047426921EA020313
:1009D0000A4043EA0241816170470AB18161704770
:1009E0000904FBE701488068704700000C00002004
:1009F0000248816802781144816070470C00002031
:100A00000B4810B5016841F400710160016841F4C0
:100A100080610160016841F480710160032000F091
:100A20006FF8002000F006F800F024F8002010BD58
:100A3000003C024070B50D4D04464FF47A712878A1
:100A4000B1FBF0F00A490968B1FBF0F000F027FEB5
:100A500048B9102C07D200222146501E00F030F871
:100A600000206C6070BD012070BD00000C000020F3
:100A7000180000200A4808B5016841F4804101606F
:100A8000006800F4804000900548001F016841F0B4
:100A900080510160006800F08050009008BD0000A7
:100AA00044380240002809DB00F01F020121914078
:100AB0004009800000F1E020C0F8001170470000FC
:100AC000F0B40E4B1B680C46C3F30223C3F10705B9
:100AD000042D00D90425191D072901D2002300E0A7
:100AE000DB1E012606FA05F1491E214099409E4071
:100AF000761E16403143F0BC01F0E3B80CED00E087
:100B0000064900F0070208684FF6FF03184040EA64
:100B10000220034A10430860704700000CED00E01B
:100B20000000FA052DE9F0470E46050065D0DFF814
:100B30001481D8F80000F7B200F00700B04207D2E5
:100B400088F80070D8F8000000F00700B04254D1D7
:100B500028683D4C810712D5400703D5206840F432
:100B6000E05020602878000703D5206840F46040FA
:100B700020602068A96820F0F000084320602878F1
:100B8000C0072DD0304968680839012812D00228E2
:100B900013D0032811D00968890700292DDA2168AC
:100BA00021F0030101432160FFF71CFF814641F260
:100BB000883A0EE009688903EFE709688901ECE7E4
:100BC000FFF710FFA0EB0901514502D90320BDE852
:100BD000F0872068696800F00C00B0EB810FEFD15E
:100BE000D8F80010404601F00701B14207D907705C
:100BF000006800F00700B04201D00120E7E7287844
:100C0000400705D52068E96820F4E05008432060DB
:100C10002878000706D52068296920F4604040EA5A
:100C2000C100206000F018F82168084AC1F30311E0
:100C3000515CC8400649086006480068FFF7FAFEA4
:100C40000020C4E7003C024008380240DC1D0008D8
:100C50001800002010000020154810B5006810F0A2
:100C60000C02144813D01449042A0FD0082A0ED1BC
:100C70000F4C241F2268236802F03F025B0207D555
:100C80002068C0F38810A0FB010106E0084610BDF3
:100C90002168C1F38811A1FB00010023FFF790FA3E
:100CA0002168C1F30141491C4900B0FBF1F010BDBE
:100CB000083802400024F400001BB700F0B51F4CB8
:100CC00016460D461D4B002102220327283C002812
:100CD000186887B019D040F004001860186800F058
:100CE0000400059010020090CDE90121CDE90371C7
:100CF00069461348FFF76CFD206845EAC60120F0FD
:100D000078400843206007B0F0BD40F00100186053
:100D1000186800F0010005904FF480700090CDE954
:100D20000121CDE9037169460648FFF751FD2068AE
:100D3000354320F0EC602843E4E7000030380240FF
:100D400000080240000002402DE9F84F04006ED078
:100D50002078DFF84C93C007A9F104054AD009F1C7
:100D600004000168C1F38101012908D00068C0F3C3
:100D7000810002280AD1D9F80000400206D528686F
:100D8000800337D560680028E1D033E06068B0F5B3
:100D9000803F10D0B0F5A02F286810D020F480300C
:100DA0002860286820F4802028606068A8B1FFF7D8
:100DB00019FE06460DE0286840F48030F4E740F460
:100DC00080202860F7E700BFFFF70CFE801B642837
:100DD00073D828688003F7D50CE0FFF703FE0646BA
:100DE00005E000BFFFF7FEFD801B6428F0D82868EF
:100DF0008003F7D42078DFF8AC8280074FF0000A38
:100E00003ED5A748001D016811F00C0F08D00068FE
:100E1000C0F3810002280BD1D9F80000400207D4AA
:100E20002868800716D5E068012800D112E033E178
:100E3000E068B8B10120C8F80000FFF7D3FD06460E
:100E400005E000BFFFF7CEFD801B0228C0D8286850
:100E50008007F7D52868216920F0F80040EAC10032
:100E600028600DE0C8F800A0FFF7BCFD064604E0CE
:100E7000FFF7B8FD801B02281FD828688007F7D429
:100E80002078000722D5864F87486169703771B195
:100E900001210160FFF7A6FD064604E0FFF7A2FD71
:100EA000801B022809D838688007F7D50EE0C0F803
:100EB00000A0FFF797FD064605E082E0FFF792FDF0
:100EC000801B02287DD838688007F7D42078400737
:100ED00068D5DFF8CCB100270BF13C0BDBF8000044
:100EE000C0000BD4DBF8001041F08051CBF80010AB
:100EF000DBF80000012700F0805000906B4E306856
:100F0000C00510D4306840F480703060FFF76AFD8F
:100F1000009005E0FFF766FD0099401A022850D8BE
:100F20003068C005F6D55E4EA0686C3601280FD03B
:100F30000528306810D020F001003060306820F0C3
:100F400004003060A068B8B1FFF74CFD00900FE0DE
:100F5000306840F00100F4E740F004003060F7E74B
:100F6000FFF740FD0099411A41F28830814266D86E
:100F700030688007F4D50EE0FFF734FD009007E0FD
:100F8000FFF730FD0099411A41F28830814256D86E
:100F900030688007F4D42FB1DBF8001021F08051C5
:100FA000CBF80010A069C8B33D49091D0968C1F319
:100FB000810102294AD00228504607D0C8F86000B3
:100FC00000E03CE0FFF70EFD04463BE04746C8F872
:100FD0006000FFF707FD064605E000BFFFF702FDD2
:100FE000801B02282BD828688001F7D4D4E9070198
:100FF0000843A16A2E4A490802EB0141626A41EAAC
:101000008211084394F82C1040EA0161C9F80010DD
:1010100001203866FFF7E6FC044606E03EE000BF2C
:10102000FFF7E0FC001B022809D828688001F7D5EB
:1010300034E000BFFFF7D6FC001B022802D90320D2
:10104000BDE8F88F28688001F4D427E00128F7D0A4
:10105000D9F80000E26900F4800191421CD1226AB3
:1010600000F03F01914217D147F6C071626A01401A
:10107000B1EB821F10D1A26A4FF0FF3300F4403170
:1010800003EB5202B1EB024F06D194F82C1000F0A2
:101090007060B0EB016F01D00120D1E70020CFE7F5
:1010A0000438024000004742800E47420070004072
:1010B0000000FFFF704710B5044600684168C9434F
:1010C000890601D4102004E04168C94349060BD4C5
:1010D0000820A060042060712046FFF7EBFF216824
:1010E0006FF06000486010BD4168C943C907FAD17C
:1010F000016821F00801016020688168E160607981
:101100000428F0D00120607100202071204600F0FA
:1011100039F810BD70B5040003D06079002510B116
:1011200005E0012070BD2571204600F00DF8022079
:1011300060712068016841F0040101600120607164
:10114000A560002070BD000008B500680B4988420A
:1011500012D10B48016841F0400101600068002293
:1011600000F04000009011465020FFF7A9FCBDE8B8
:1011700008405020FFF796BC08BD0000000806504C
:1011800034380240704770B50446806C002538B191
:10119000FFF750F920B1606D40F010006065012547
:1011A000E06C38B1FFF746F920B1606D40F01000F7
:1011B000606501252068416821F00301416001203C
:1011C00084F85100284670BD704790F85100704770
:1011D00070B5040009D0606A002540B125616561E1
:1011E000A56294F8510040B10CE0012070BD606828
:1011F000B0F5827FF4D0E561F2E784F850502046E4
:1012000000F044F8022084F851002068016821F0C1
:1012100040010160A088218900F4827001F404413A
:101220000843A18901F400610843217C01F0020117
:101230000843217D01F001010843218B01F4007175
:101240000843217F01F03801084394F8201001F091
:1012500080010843218D01F4005108432168086092
:10126000A069042101EA104094F8241001F0100153
:101270000843216848602068C16921F40061C161A8
:101280006565012084F85100002070BD2DE9F04112
:1012900086B0064614216846FEF7DCFF2A4930680E
:1012A00088424DD129480024016841F48041016001
:1012B000006800F48040059024481038016841F02F
:1012C000020101600068694600F0020005904FF4D9
:1012D000704000900220CDE9010403200390052016
:1012E00004901B48FFF774FA1B4D1A484FF440381E
:1012F000C5E900040715AC60C5E903476C61AC6142
:10130000C5E9074828466C62FFF7AEF908B1FFF758
:1013100056F8F564AE630F48104D1830E5E8020446
:10132000402091C50D4845F81449AC61C5E907480E
:101330006C62FFF799F908B1FFF741F8B564AE6345
:1013400006B0BDE8F081000000380040403802409F
:1013500000040240586002405C0D0020BC0D0020DB
:101360002DE9F041044600268068042318B9656819
:10137000B5F5827F0ED094F85050012D13D001277F
:1013800084F8507094F851C00025BCF1010F0DD0C5
:10139000022654E084F851302046BDE8F04113465F
:1013A0000A4600F067B80220BDE8F08171B16AB169
:1013B00084F851306565A163A287E287256465647E
:1013C000A586E586B0F5004F02D00BE0012636E099
:1013D0002068016821F0400101602068016821F463
:1013E00080410160E16C18480864E16C1748C863EB
:1013F000E16C1748C864E06C0565E38F2168A26B57
:101400000C31E06CFFF79AF938B1606D40F01000D4
:101410006065012684F8517011E020680168490672
:1014200003D4016841F0400101602068416841F047
:10143000200141602068416841F00101416084F869
:1014400050503046B0E70000311800084F1800082F
:101450000F18000810B54FF400410348FFF7B5FA24
:1014600002490120087010BD000002400000002069
:10147000704700002DE9F041044690F85000002626
:1014800001280DD0012784F8507094F851000025F0
:10149000D4F804C001280FD0BCF5827F0AD102E045
:1014A0000220BDE8F081D4F808C0BCF1000F01D1E2
:1014B000042801D0022660E049B342B33BB394F85C
:1014C0005100042802D0052084F85100656521638D
:1014D000A386E386A263A387E3872564656494F803
:1014E0005100042815D0E16C264808642648E16CB8
:1014F000C863E16C2548C864E06C0565E38F21682A
:10150000A26B0C31E06CFFF719F9E0B906E0012697
:1015100033E0E16C1E4808641E48E8E72068416833
:1015200041F001014160A06C0564A06CC563A06C32
:10153000C564A06C0565E38E2268216B0C32A06C3B
:10154000FFF7FCF838B1606D40F0100060650126CF
:1015500084F8517011E020680168490603D40168DD
:1015600041F0400101602068416841F02001416084
:101570002068416841F00201416084F850503046D3
:101580008FE70000451800081D1900080F18000813
:10159000311800084F1800082DE9F041044690F872
:1015A00050000026012809D0012784F8507094F8D3
:1015B00051000025012804D002264EE00220BDE89B
:1015C000F08189B182B1032084F8510065652163FF
:1015D000A286E286A56365642564A587E587A06881
:1015E000B0F5004F02D00BE0012636E0206801681C
:1015F00021F0400101602068016841F480410160F0
:10160000A16C18480864A16C1748C863A16C1748FE
:10161000C864A06C0565E38E2268216B0C32A06C57
:10162000FFF78CF838B1606D40F01000606501265E
:1016300084F8517011E020680168490603D40168FC
:1016400041F0400101602068416841F020014160A3
:101650002068416841F00201416084F850503046F2
:10166000ADE700003B180008B91800080F18000883
:1016700010B50446012280210548FFF7AEF910217C
:101680000448FFF7A2F92046BDE81040FEF71EBE51
:10169000000002400004024070477047704710B5D8
:1016A000401EB0F1807F01D3012010BD4FF0E02437
:1016B00060610F21601700F004FB0020A06107208B
:1016C0002061002010BD00000148FFF7F4BC0000BD
:1016D000F40C0020FEE700002DE9F04387B0142150
:1016E0006846FEF7B7FD35480024016841F08001E7
:1016F0000160016801F080010591016841F001017C
:101700000160016801F001010591016841F00201E9
:101710000160016801F002010591016841F00401D6
:1017200001600068DFF8988000F004000590012255
:1017300080214046FFF751F94FF400470022394617
:101740004046FFF74AF9DFF87C9000221021484616
:10175000FFF743F901258020CDE90005CDE90254CA
:1017600069464046FFF734F8680200900226CDE94A
:1017700001640394694614480494FFF729F8280289
:101780000090CDE901640394694640460494FFF754
:101790001FF80097CDE90154694640460394FFF7CE
:1017A00017F810200090CDE901546946484603948B
:1017B000FFF70EF807B0BDE8F083000030380240B4
:1017C0000000024000040240000802400D4810B52D
:1017D0000B4901600021416002228160C0E90312CF
:1017E0000122C0E905210162416281620A21C162D0
:1017F000FFF7EEFC002801D072B6FEE710BD000036
:1018000000380040040D0020FEE7FEE7704710B5E9
:10181000806B01684A6822F003024A60416D41F022
:1018200010014165012180F85110FFF7CDFC10BD7A
:1018300010B5806BFFF71CFE10BD10B5806BFFF775
:101840002BFF10BD10B5806BFFF728FF10BD70B5E2
:101850000546846BFFF7C6F8024628680068C00595
:1018600026D42068416821F020014160A06818B9A1
:101870006068B0F5827F16D02068416821F00101D0
:1018800041606421204600F076F808B120206065B0
:101890000020E087012084F85100606D40B12046AF
:1018A000FFF792FC70BD2068416821F00301E7E773
:1018B0002046FFF7CFFD70BD38B50546846BFFF7B6
:1018C00091F8024628680068C00523D42068416862
:1018D00021F0200141602068416821F0020141604F
:1018E0006421204600F076F818B1606D40F02000C9
:1018F0006065A068002118B92068C26880680090FF
:10190000E186012084F85100606D18B12046FFF790
:101910005BFC38BD2046FFF7ABFE38BD70B5054611
:10192000846BFFF75FF8024628680068C0051ED484
:101930002068416821F0200141606421204600F0C8
:1019400049F818B1606D40F020006065206841687A
:1019500021F0030141600020E086E087012084F847
:101960005100606D18B12046FFF72EFC70BD204677
:10197000FFF793FE70BDF8B5044640684FF48273DC
:10198000984221D1A0684FF48065B0F5004F01D096
:10199000A8420AD12068066826F040060660606802
:1019A000984211D1A068A8420ED000920B460022A6
:1019B0008021204600F03AF8002804D0606D40F005
:1019C000200060650320F8BD00920B460022012133
:1019D000EFE7000038B504461248134B0068B0FB2F
:1019E000F3F04FF47A73584300906068B0F5827F4B
:1019F0000DD10B46009200228021204600F016F8FF
:101A000070B1606D40F020006065032038BD009823
:101A100030B1401E009020688068C0430006F6D5B3
:101A2000002038BD1800002000366E012DE9F84373
:101A30001E46914688460446089DFEF7D3FF401B8C
:101A4000351AFEF7CFFF074625480068C0F3CB30B4
:101A5000684338E0701C37D0FEF7C4FFC01BA842B3
:101A600003D215B1009860B32CE02068416821F0E2
:101A7000E00141606068B0F5827F0BD1A068B0F5ED
:101A8000004F02D0B0F5806F04D12068016821F0CA
:101A900040010160A06AB0F5005F09D120680168CB
:101AA00021F4005101602068016841F40051016097
:101AB000012084F85100002084F850000320BDE884
:101AC000F8830025401E00902068816838EA0100F4
:101AD00004D000214945BDD10020F0E70121F9E7FC
:101AE00018000020704700002DE9F047DFF8C8809B
:101AF000324A86B0AA2188F80010517888F801107F
:101B0000491C517000258246A8F8425008F1440152
:101B100028462A464FF4806301F8010B401C521CF2
:101B2000C0B29A42F8DB142225A16846FEF779FB81
:101B3000284C6FF03607042625706570A5709DF857
:101B40000000E070206800F029F90125E9462060D6
:101B500009EB850050F8030C00F020F944F825004B
:101B60006D1CB542F4DB1548001D0068816841F02A
:101B70000101816018490160104832461549001D75
:101B8000FEF720FC00F00AF908EB0701C0434864A7
:101B9000FEF7A4FB504600F023F84FF48962064993
:101BA0005046FFF7F9FC002280210C48FEF715FF94
:101BB00006B0BDE8F08700001C00002000000020F7
:101BC00055555555555555555555555555555555C5
:101BD00000000000AC0800209D9EA56A00000240A5
:101BE00010B50446FFF7F1FA042804D12046BDE8F9
:101BF0001040FFF7C8BA10BDFEF7FABE30B593B07B
:101C000030216846FEF726FB14210CA8FEF722FBC4
:101C100025480025016841F080510160006800F00E
:101C2000805011902148016841F4804101600068B2
:101C3000022400F480401190032000904FF4803083
:101C4000019001200390102004908004CDE906400B
:101C50000C2008904FF4A870CDE9090407200B90E0
:101C60006846FFF771F808B172B6FEE70CA90F20BD
:101C700081E831004FF4A0500F904FF48050109045
:101C800005210CA8FEF74EFF08B172B6FEE7002250
:101C900011461046FFF712F8002211460120FFF707
:101CA0000DF813B030BD0000403802400070004015
:101CB0000248016841F470010160704788ED00E05E
:101CC000FEE70907090E002804DB00F1E02080F898
:101CD0000014704700F00F0000F1E02080F8141DA0
:101CE000704702E008C8121F08C1002AFAD17047E5
:101CF0007047002001E001C1121F002AFBD170478C
:101D000008B5FEF77DFEFFF779FFFFF7E5FC1E48FB
:101D10000025016841F400110160006800F4001022
:101D20000090FFF753FD1A49184808600846FEF76F
:101D30005CFB08B172B6FEE7174916480860084612
:101D4000FFF7E8F908B172B6FEE7002211460E204F
:101D5000FEF7B6FE0E20FEF7A5FE002211460F206C
:101D6000FEF7AEFE0F20FEF79DFE0B481030FEF78B
:101D7000ADFA074C241F20780028FCD0064810300C
:101D8000FFF7B2FE2570F6E730380240003002401F
:101D90000400002000080650F40C00204FF05531DC
:101DA00001EA500100F0553041EA40004FF0333174
:101DB00001EA900100F0333041EA80004FF00F312A
:101DC00001EA101100F00F3041EA001040BA4FEA6A
:101DD0003040704700061016000610160000000084
:101DE0000000000001020304060708090C1E000899
:101DF000000000201C000000E21C0008281E000853
:101E00001C000020042E0000F21C0008000000004E
:101E100000000000000000000100000010000000B1
:081E2000000000000024F400A2
:040000050800018965
:00000001FF
